{
  "contractName": "TimelessNFT",
  "abi": [
    {
      "inputs": [
        {
          "internalType": "string",
          "name": "_name",
          "type": "string"
        },
        {
          "internalType": "string",
          "name": "_symbol",
          "type": "string"
        },
        {
          "internalType": "uint256",
          "name": "_royalityFee",
          "type": "uint256"
        },
        {
          "internalType": "address",
          "name": "_artist",
          "type": "address"
        }
      ],
      "stateMutability": "nonpayable",
      "type": "constructor"
    },
    {
      "anonymous": false,
      "inputs": [
        {
          "indexed": true,
          "internalType": "address",
          "name": "owner",
          "type": "address"
        },
        {
          "indexed": true,
          "internalType": "address",
          "name": "approved",
          "type": "address"
        },
        {
          "indexed": true,
          "internalType": "uint256",
          "name": "tokenId",
          "type": "uint256"
        }
      ],
      "name": "Approval",
      "type": "event"
    },
    {
      "anonymous": false,
      "inputs": [
        {
          "indexed": true,
          "internalType": "address",
          "name": "owner",
          "type": "address"
        },
        {
          "indexed": true,
          "internalType": "address",
          "name": "operator",
          "type": "address"
        },
        {
          "indexed": false,
          "internalType": "bool",
          "name": "approved",
          "type": "bool"
        }
      ],
      "name": "ApprovalForAll",
      "type": "event"
    },
    {
      "anonymous": false,
      "inputs": [
        {
          "indexed": true,
          "internalType": "address",
          "name": "previousOwner",
          "type": "address"
        },
        {
          "indexed": true,
          "internalType": "address",
          "name": "newOwner",
          "type": "address"
        }
      ],
      "name": "OwnershipTransferred",
      "type": "event"
    },
    {
      "anonymous": false,
      "inputs": [
        {
          "indexed": false,
          "internalType": "uint256",
          "name": "id",
          "type": "uint256"
        },
        {
          "indexed": true,
          "internalType": "address",
          "name": "owner",
          "type": "address"
        },
        {
          "indexed": false,
          "internalType": "uint256",
          "name": "cost",
          "type": "uint256"
        },
        {
          "indexed": false,
          "internalType": "string",
          "name": "metadataURI",
          "type": "string"
        },
        {
          "indexed": false,
          "internalType": "uint256",
          "name": "timestamp",
          "type": "uint256"
        }
      ],
      "name": "Sale",
      "type": "event"
    },
    {
      "anonymous": false,
      "inputs": [
        {
          "indexed": true,
          "internalType": "address",
          "name": "from",
          "type": "address"
        },
        {
          "indexed": true,
          "internalType": "address",
          "name": "to",
          "type": "address"
        },
        {
          "indexed": true,
          "internalType": "uint256",
          "name": "tokenId",
          "type": "uint256"
        }
      ],
      "name": "Transfer",
      "type": "event"
    },
    {
      "inputs": [
        {
          "internalType": "address",
          "name": "to",
          "type": "address"
        },
        {
          "internalType": "uint256",
          "name": "tokenId",
          "type": "uint256"
        }
      ],
      "name": "approve",
      "outputs": [],
      "stateMutability": "nonpayable",
      "type": "function"
    },
    {
      "inputs": [],
      "name": "artist",
      "outputs": [
        {
          "internalType": "address",
          "name": "",
          "type": "address"
        }
      ],
      "stateMutability": "view",
      "type": "function",
      "constant": true
    },
    {
      "inputs": [
        {
          "internalType": "address",
          "name": "owner",
          "type": "address"
        }
      ],
      "name": "balanceOf",
      "outputs": [
        {
          "internalType": "uint256",
          "name": "",
          "type": "uint256"
        }
      ],
      "stateMutability": "view",
      "type": "function",
      "constant": true
    },
    {
      "inputs": [],
      "name": "cost",
      "outputs": [
        {
          "internalType": "uint256",
          "name": "",
          "type": "uint256"
        }
      ],
      "stateMutability": "view",
      "type": "function",
      "constant": true
    },
    {
      "inputs": [
        {
          "internalType": "uint256",
          "name": "tokenId",
          "type": "uint256"
        }
      ],
      "name": "getApproved",
      "outputs": [
        {
          "internalType": "address",
          "name": "",
          "type": "address"
        }
      ],
      "stateMutability": "view",
      "type": "function",
      "constant": true
    },
    {
      "inputs": [
        {
          "internalType": "uint256",
          "name": "",
          "type": "uint256"
        }
      ],
      "name": "holderOf",
      "outputs": [
        {
          "internalType": "address",
          "name": "",
          "type": "address"
        }
      ],
      "stateMutability": "view",
      "type": "function",
      "constant": true
    },
    {
      "inputs": [
        {
          "internalType": "address",
          "name": "owner",
          "type": "address"
        },
        {
          "internalType": "address",
          "name": "operator",
          "type": "address"
        }
      ],
      "name": "isApprovedForAll",
      "outputs": [
        {
          "internalType": "bool",
          "name": "",
          "type": "bool"
        }
      ],
      "stateMutability": "view",
      "type": "function",
      "constant": true
    },
    {
      "inputs": [],
      "name": "name",
      "outputs": [
        {
          "internalType": "string",
          "name": "",
          "type": "string"
        }
      ],
      "stateMutability": "view",
      "type": "function",
      "constant": true
    },
    {
      "inputs": [],
      "name": "owner",
      "outputs": [
        {
          "internalType": "address",
          "name": "",
          "type": "address"
        }
      ],
      "stateMutability": "view",
      "type": "function",
      "constant": true
    },
    {
      "inputs": [
        {
          "internalType": "uint256",
          "name": "tokenId",
          "type": "uint256"
        }
      ],
      "name": "ownerOf",
      "outputs": [
        {
          "internalType": "address",
          "name": "",
          "type": "address"
        }
      ],
      "stateMutability": "view",
      "type": "function",
      "constant": true
    },
    {
      "inputs": [],
      "name": "renounceOwnership",
      "outputs": [],
      "stateMutability": "nonpayable",
      "type": "function"
    },
    {
      "inputs": [],
      "name": "royalityFee",
      "outputs": [
        {
          "internalType": "uint256",
          "name": "",
          "type": "uint256"
        }
      ],
      "stateMutability": "view",
      "type": "function",
      "constant": true
    },
    {
      "inputs": [
        {
          "internalType": "address",
          "name": "from",
          "type": "address"
        },
        {
          "internalType": "address",
          "name": "to",
          "type": "address"
        },
        {
          "internalType": "uint256",
          "name": "tokenId",
          "type": "uint256"
        }
      ],
      "name": "safeTransferFrom",
      "outputs": [],
      "stateMutability": "payable",
      "type": "function",
      "payable": true
    },
    {
      "inputs": [
        {
          "internalType": "address",
          "name": "from",
          "type": "address"
        },
        {
          "internalType": "address",
          "name": "to",
          "type": "address"
        },
        {
          "internalType": "uint256",
          "name": "tokenId",
          "type": "uint256"
        },
        {
          "internalType": "bytes",
          "name": "_data",
          "type": "bytes"
        }
      ],
      "name": "safeTransferFrom",
      "outputs": [],
      "stateMutability": "payable",
      "type": "function",
      "payable": true
    },
    {
      "inputs": [
        {
          "internalType": "address",
          "name": "operator",
          "type": "address"
        },
        {
          "internalType": "bool",
          "name": "approved",
          "type": "bool"
        }
      ],
      "name": "setApprovalForAll",
      "outputs": [],
      "stateMutability": "nonpayable",
      "type": "function"
    },
    {
      "inputs": [],
      "name": "supply",
      "outputs": [
        {
          "internalType": "uint256",
          "name": "",
          "type": "uint256"
        }
      ],
      "stateMutability": "view",
      "type": "function",
      "constant": true
    },
    {
      "inputs": [
        {
          "internalType": "bytes4",
          "name": "interfaceId",
          "type": "bytes4"
        }
      ],
      "name": "supportsInterface",
      "outputs": [
        {
          "internalType": "bool",
          "name": "",
          "type": "bool"
        }
      ],
      "stateMutability": "view",
      "type": "function",
      "constant": true
    },
    {
      "inputs": [],
      "name": "symbol",
      "outputs": [
        {
          "internalType": "string",
          "name": "",
          "type": "string"
        }
      ],
      "stateMutability": "view",
      "type": "function",
      "constant": true
    },
    {
      "inputs": [
        {
          "internalType": "uint256",
          "name": "index",
          "type": "uint256"
        }
      ],
      "name": "tokenByIndex",
      "outputs": [
        {
          "internalType": "uint256",
          "name": "",
          "type": "uint256"
        }
      ],
      "stateMutability": "view",
      "type": "function",
      "constant": true
    },
    {
      "inputs": [
        {
          "internalType": "address",
          "name": "owner",
          "type": "address"
        },
        {
          "internalType": "uint256",
          "name": "index",
          "type": "uint256"
        }
      ],
      "name": "tokenOfOwnerByIndex",
      "outputs": [
        {
          "internalType": "uint256",
          "name": "",
          "type": "uint256"
        }
      ],
      "stateMutability": "view",
      "type": "function",
      "constant": true
    },
    {
      "inputs": [
        {
          "internalType": "uint256",
          "name": "tokenId",
          "type": "uint256"
        }
      ],
      "name": "tokenURI",
      "outputs": [
        {
          "internalType": "string",
          "name": "",
          "type": "string"
        }
      ],
      "stateMutability": "view",
      "type": "function",
      "constant": true
    },
    {
      "inputs": [],
      "name": "totalSupply",
      "outputs": [
        {
          "internalType": "uint256",
          "name": "",
          "type": "uint256"
        }
      ],
      "stateMutability": "view",
      "type": "function",
      "constant": true
    },
    {
      "inputs": [],
      "name": "totalTx",
      "outputs": [
        {
          "internalType": "uint256",
          "name": "",
          "type": "uint256"
        }
      ],
      "stateMutability": "view",
      "type": "function",
      "constant": true
    },
    {
      "inputs": [
        {
          "internalType": "address",
          "name": "from",
          "type": "address"
        },
        {
          "internalType": "address",
          "name": "to",
          "type": "address"
        },
        {
          "internalType": "uint256",
          "name": "tokenId",
          "type": "uint256"
        }
      ],
      "name": "transferFrom",
      "outputs": [],
      "stateMutability": "payable",
      "type": "function",
      "payable": true
    },
    {
      "inputs": [
        {
          "internalType": "address",
          "name": "newOwner",
          "type": "address"
        }
      ],
      "name": "transferOwnership",
      "outputs": [],
      "stateMutability": "nonpayable",
      "type": "function"
    },
    {
      "inputs": [
        {
          "internalType": "string",
          "name": "title",
          "type": "string"
        },
        {
          "internalType": "string",
          "name": "description",
          "type": "string"
        },
        {
          "internalType": "string",
          "name": "metadataURI",
          "type": "string"
        },
        {
          "internalType": "string",
          "name": "nfttype",
          "type": "string"
        },
        {
          "internalType": "uint256",
          "name": "salesPrice",
          "type": "uint256"
        }
      ],
      "name": "payToMint",
      "outputs": [],
      "stateMutability": "payable",
      "type": "function",
      "payable": true
    },
    {
      "inputs": [
        {
          "internalType": "uint256",
          "name": "id",
          "type": "uint256"
        }
      ],
      "name": "payToBuy",
      "outputs": [],
      "stateMutability": "payable",
      "type": "function",
      "payable": true
    },
    {
      "inputs": [
        {
          "internalType": "uint256",
          "name": "id",
          "type": "uint256"
        },
        {
          "internalType": "uint256",
          "name": "newPrice",
          "type": "uint256"
        }
      ],
      "name": "changePrice",
      "outputs": [
        {
          "internalType": "bool",
          "name": "",
          "type": "bool"
        }
      ],
      "stateMutability": "nonpayable",
      "type": "function"
    },
    {
      "inputs": [],
      "name": "getAllNFTs",
      "outputs": [
        {
          "components": [
            {
              "internalType": "uint256",
              "name": "id",
              "type": "uint256"
            },
            {
              "internalType": "address",
              "name": "owner",
              "type": "address"
            },
            {
              "internalType": "uint256",
              "name": "cost",
              "type": "uint256"
            },
            {
              "internalType": "string",
              "name": "title",
              "type": "string"
            },
            {
              "internalType": "string",
              "name": "description",
              "type": "string"
            },
            {
              "internalType": "string",
              "name": "metadataURI",
              "type": "string"
            },
            {
              "internalType": "string",
              "name": "nfttype",
              "type": "string"
            },
            {
              "internalType": "uint256",
              "name": "timestamp",
              "type": "uint256"
            }
          ],
          "internalType": "struct TimelessNFT.TransactionStruct[]",
          "name": "",
          "type": "tuple[]"
        }
      ],
      "stateMutability": "view",
      "type": "function",
      "constant": true
    },
    {
      "inputs": [
        {
          "internalType": "uint256",
          "name": "id",
          "type": "uint256"
        }
      ],
      "name": "getNFT",
      "outputs": [
        {
          "components": [
            {
              "internalType": "uint256",
              "name": "id",
              "type": "uint256"
            },
            {
              "internalType": "address",
              "name": "owner",
              "type": "address"
            },
            {
              "internalType": "uint256",
              "name": "cost",
              "type": "uint256"
            },
            {
              "internalType": "string",
              "name": "title",
              "type": "string"
            },
            {
              "internalType": "string",
              "name": "description",
              "type": "string"
            },
            {
              "internalType": "string",
              "name": "metadataURI",
              "type": "string"
            },
            {
              "internalType": "string",
              "name": "nfttype",
              "type": "string"
            },
            {
              "internalType": "uint256",
              "name": "timestamp",
              "type": "uint256"
            }
          ],
          "internalType": "struct TimelessNFT.TransactionStruct",
          "name": "",
          "type": "tuple"
        }
      ],
      "stateMutability": "view",
      "type": "function",
      "constant": true
    },
    {
      "inputs": [],
      "name": "getAllTransactions",
      "outputs": [
        {
          "components": [
            {
              "internalType": "uint256",
              "name": "id",
              "type": "uint256"
            },
            {
              "internalType": "address",
              "name": "owner",
              "type": "address"
            },
            {
              "internalType": "uint256",
              "name": "cost",
              "type": "uint256"
            },
            {
              "internalType": "string",
              "name": "title",
              "type": "string"
            },
            {
              "internalType": "string",
              "name": "description",
              "type": "string"
            },
            {
              "internalType": "string",
              "name": "metadataURI",
              "type": "string"
            },
            {
              "internalType": "string",
              "name": "nfttype",
              "type": "string"
            },
            {
              "internalType": "uint256",
              "name": "timestamp",
              "type": "uint256"
            }
          ],
          "internalType": "struct TimelessNFT.TransactionStruct[]",
          "name": "",
          "type": "tuple[]"
        }
      ],
      "stateMutability": "view",
      "type": "function",
      "constant": true
    }
  ],
  "bytecode": "0x60806040526000600f556000601055662386f26fc100006011553480156200002657600080fd5b5060405162005c0738038062005c0783398181016040528101906200004c9190620004af565b8383816000908051906020019062000066929190620001c2565b5080600190805190602001906200007f929190620001c2565b505050620000a262000096620000f460201b60201c565b620000fc60201b60201c565b81600e8190555080600d60006101000a81548173ffffffffffffffffffffffffffffffffffffffff021916908373ffffffffffffffffffffffffffffffffffffffff16021790555050505050620005c4565b600033905090565b6000600a60009054906101000a900473ffffffffffffffffffffffffffffffffffffffff16905081600a60006101000a81548173ffffffffffffffffffffffffffffffffffffffff021916908373ffffffffffffffffffffffffffffffffffffffff1602179055508173ffffffffffffffffffffffffffffffffffffffff168173ffffffffffffffffffffffffffffffffffffffff167f8be0079c531659141344cd1fd0a4f28419497f9722a3daafe3b4186f6b6457e060405160405180910390a35050565b828054620001d0906200058e565b90600052602060002090601f016020900481019282620001f4576000855562000240565b82601f106200020f57805160ff191683800117855562000240565b8280016001018555821562000240579182015b828111156200023f57825182559160200191906001019062000222565b5b5090506200024f919062000253565b5090565b5b808211156200026e57600081600090555060010162000254565b5090565b6000604051905090565b600080fd5b600080fd5b600080fd5b600080fd5b6000601f19601f8301169050919050565b7f4e487b7100000000000000000000000000000000000000000000000000000000600052604160045260246000fd5b620002db8262000290565b810181811067ffffffffffffffff82111715620002fd57620002fc620002a1565b5b80604052505050565b60006200031262000272565b9050620003208282620002d0565b919050565b600067ffffffffffffffff821115620003435762000342620002a1565b5b6200034e8262000290565b9050602081019050919050565b60005b838110156200037b5780820151818401526020810190506200035e565b838111156200038b576000848401525b50505050565b6000620003a8620003a28462000325565b62000306565b905082815260208101848484011115620003c757620003c66200028b565b5b620003d48482856200035b565b509392505050565b600082601f830112620003f457620003f362000286565b5b81516200040684826020860162000391565b91505092915050565b6000819050919050565b62000424816200040f565b81146200043057600080fd5b50565b600081519050620004448162000419565b92915050565b600073ffffffffffffffffffffffffffffffffffffffff82169050919050565b600062000477826200044a565b9050919050565b62000489816200046a565b81146200049557600080fd5b50565b600081519050620004a9816200047e565b92915050565b60008060008060808587031215620004cc57620004cb6200027c565b5b600085015167ffffffffffffffff811115620004ed57620004ec62000281565b5b620004fb87828801620003dc565b945050602085015167ffffffffffffffff8111156200051f576200051e62000281565b5b6200052d87828801620003dc565b9350506040620005408782880162000433565b9250506060620005538782880162000498565b91505092959194509250565b7f4e487b7100000000000000000000000000000000000000000000000000000000600052602260045260246000fd5b60006002820490506001821680620005a757607f821691505b60208210811415620005be57620005bd6200055f565b5b50919050565b61563380620005d46000396000f3fe6080604052600436106101d85760003560e01c8063576f7ea711610102578063a22cb46511610095578063dbacc23711610064578063dbacc237146106a5578063e0391b09146106e2578063e985e9c51461070d578063f2fde38b1461074a576101d8565b8063a22cb465146105e6578063b3de019c1461060f578063b88d4fde1461064c578063c87b56dd14610668576101d8565b80637220cf39116100d15780637220cf39146105495780638da5cb5b1461057457806395d89b411461059f5780639ba4b017146105ca576101d8565b8063576f7ea71461047b5780636352211e146104b857806370a08231146104f5578063715018a614610532576101d8565b806323b872dd1161017a57806342842e0e1161014957806342842e0e146103db57806343bc1612146103f757806349daf7fe146104225780634f6ccce71461043e576101d8565b806323b872dd1461032c57806327506f53146103485780632f745c5914610373578063326bb4ad146103b0576101d8565b8063081812fc116101b6578063081812fc14610270578063095ea7b3146102ad57806313faede6146102d657806318160ddd14610301576101d8565b806301ffc9a7146101dd578063047fc9aa1461021a57806306fdde0314610245575b600080fd5b3480156101e957600080fd5b5061020460048036038101906101ff9190613ad2565b610773565b6040516102119190613b1a565b60405180910390f35b34801561022657600080fd5b5061022f6107ed565b60405161023c9190613b4e565b60405180910390f35b34801561025157600080fd5b5061025a6107f3565b6040516102679190613c02565b60405180910390f35b34801561027c57600080fd5b5061029760048036038101906102929190613c50565b610885565b6040516102a49190613cbe565b60405180910390f35b3480156102b957600080fd5b506102d460048036038101906102cf9190613d05565b61090a565b005b3480156102e257600080fd5b506102eb610a22565b6040516102f89190613b4e565b60405180910390f35b34801561030d57600080fd5b50610316610a28565b6040516103239190613b4e565b60405180910390f35b61034660048036038101906103419190613d45565b610a35565b005b34801561035457600080fd5b5061035d610a95565b60405161036a9190613f87565b60405180910390f35b34801561037f57600080fd5b5061039a60048036038101906103959190613d05565b610db1565b6040516103a79190613b4e565b60405180910390f35b3480156103bc57600080fd5b506103c5610e56565b6040516103d29190613b4e565b60405180910390f35b6103f560048036038101906103f09190613d45565b610e5c565b005b34801561040357600080fd5b5061040c610e7c565b6040516104199190613cbe565b60405180910390f35b61043c600480360381019061043791906140de565b610ea2565b005b34801561044a57600080fd5b5061046560048036038101906104609190613c50565b611229565b6040516104729190613b4e565b60405180910390f35b34801561048757600080fd5b506104a2600480360381019061049d9190613c50565b61129a565b6040516104af919061428e565b60405180910390f35b3480156104c457600080fd5b506104df60048036038101906104da9190613c50565b61159f565b6040516104ec9190613cbe565b60405180910390f35b34801561050157600080fd5b5061051c600480360381019061051791906142b0565b611651565b6040516105299190613b4e565b60405180910390f35b34801561053e57600080fd5b50610547611709565b005b34801561055557600080fd5b5061055e61171d565b60405161056b9190613b4e565b60405180910390f35b34801561058057600080fd5b50610589611723565b6040516105969190613cbe565b60405180910390f35b3480156105ab57600080fd5b506105b461174d565b6040516105c19190613c02565b60405180910390f35b6105e460048036038101906105df9190613c50565b6117df565b005b3480156105f257600080fd5b5061060d60048036038101906106089190614309565b611f11565b005b34801561061b57600080fd5b5061063660048036038101906106319190614349565b611f27565b6040516106439190613b1a565b60405180910390f35b6106666004803603810190610661919061442a565b61206a565b005b34801561067457600080fd5b5061068f600480360381019061068a9190613c50565b6120cc565b60405161069c9190613c02565b60405180910390f35b3480156106b157600080fd5b506106cc60048036038101906106c79190613c50565b612173565b6040516106d99190613cbe565b60405180910390f35b3480156106ee57600080fd5b506106f76121a6565b6040516107049190613f87565b60405180910390f35b34801561071957600080fd5b50610734600480360381019061072f91906144ad565b6124c2565b6040516107419190613b1a565b60405180910390f35b34801561075657600080fd5b50610771600480360381019061076c91906142b0565b612556565b005b60007f780e9d63000000000000000000000000000000000000000000000000000000007bffffffffffffffffffffffffffffffffffffffffffffffffffffffff1916827bffffffffffffffffffffffffffffffffffffffffffffffffffffffff191614806107e657506107e5826125da565b5b9050919050565b600f5481565b6060600080546108029061451c565b80601f016020809104026020016040519081016040528092919081815260200182805461082e9061451c565b801561087b5780601f106108505761010080835404028352916020019161087b565b820191906000526020600020905b81548152906001019060200180831161085e57829003601f168201915b5050505050905090565b6000610890826126bc565b6108cf576040517f08c379a00000000000000000000000000000000000000000000000000000000081526004016108c6906145c0565b60405180910390fd5b6004600083815260200190815260200160002060009054906101000a900473ffffffffffffffffffffffffffffffffffffffff169050919050565b60006109158261159f565b90508073ffffffffffffffffffffffffffffffffffffffff168373ffffffffffffffffffffffffffffffffffffffff161415610986576040517f08c379a000000000000000000000000000000000000000000000000000000000815260040161097d90614652565b60405180910390fd5b8073ffffffffffffffffffffffffffffffffffffffff166109a5612728565b73ffffffffffffffffffffffffffffffffffffffff1614806109d457506109d3816109ce612728565b6124c2565b5b610a13576040517f08c379a0000000000000000000000000000000000000000000000000000000008152600401610a0a906146e4565b60405180910390fd5b610a1d8383612730565b505050565b60115481565b6000600880549050905090565b610a46610a40612728565b826127e9565b610a85576040517f08c379a0000000000000000000000000000000000000000000000000000000008152600401610a7c90614776565b60405180910390fd5b610a908383836128c7565b505050565b60606012805480602002602001604051908101604052809291908181526020016000905b82821015610da8578382906000526020600020906008020160405180610100016040529081600082015481526020016001820160009054906101000a900473ffffffffffffffffffffffffffffffffffffffff1673ffffffffffffffffffffffffffffffffffffffff1673ffffffffffffffffffffffffffffffffffffffff16815260200160028201548152602001600382018054610b579061451c565b80601f0160208091040260200160405190810160405280929190818152602001828054610b839061451c565b8015610bd05780601f10610ba557610100808354040283529160200191610bd0565b820191906000526020600020905b815481529060010190602001808311610bb357829003601f168201915b50505050508152602001600482018054610be99061451c565b80601f0160208091040260200160405190810160405280929190818152602001828054610c159061451c565b8015610c625780601f10610c3757610100808354040283529160200191610c62565b820191906000526020600020905b815481529060010190602001808311610c4557829003601f168201915b50505050508152602001600582018054610c7b9061451c565b80601f0160208091040260200160405190810160405280929190818152602001828054610ca79061451c565b8015610cf45780601f10610cc957610100808354040283529160200191610cf4565b820191906000526020600020905b815481529060010190602001808311610cd757829003601f168201915b50505050508152602001600682018054610d0d9061451c565b80601f0160208091040260200160405190810160405280929190818152602001828054610d399061451c565b8015610d865780601f10610d5b57610100808354040283529160200191610d86565b820191906000526020600020905b815481529060010190602001808311610d6957829003601f168201915b5050505050815260200160078201548152505081526020019060010190610ab9565b50505050905090565b6000610dbc83611651565b8210610dfd576040517f08c379a0000000000000000000000000000000000000000000000000000000008152600401610df490614808565b60405180910390fd5b600660008473ffffffffffffffffffffffffffffffffffffffff1673ffffffffffffffffffffffffffffffffffffffff168152602001908152602001600020600083815260200190815260200160002054905092915050565b600e5481565b610e778383836040518060200160405280600081525061206a565b505050565b600d60009054906101000a900473ffffffffffffffffffffffffffffffffffffffff1681565b601154341015610ee7576040517f08c379a0000000000000000000000000000000000000000000000000000000008152600401610ede90614874565b60405180910390fd5b610eef611723565b73ffffffffffffffffffffffffffffffffffffffff163373ffffffffffffffffffffffffffffffffffffffff161415610f5d576040517f08c379a0000000000000000000000000000000000000000000000000000000008152600401610f54906148e0565b60405180910390fd5b60006064600e5434610f6f919061492f565b610f7991906149b8565b9050610fa7600d60009054906101000a900473ffffffffffffffffffffffffffffffffffffffff1682612b23565b610fc3610fb2611723565b8234610fbe91906149e9565b612b23565b600f6000815480929190610fd690614a1d565b91905055506013604051806101000160405280600f5481526020013373ffffffffffffffffffffffffffffffffffffffff1681526020018481526020018881526020018781526020018681526020018581526020014281525090806001815401808255809150506001900390600052602060002090600802016000909190919091506000820151816000015560208201518160010160006101000a81548173ffffffffffffffffffffffffffffffffffffffff021916908373ffffffffffffffffffffffffffffffffffffffff1602179055506040820151816002015560608201518160030190805190602001906110cf929190613968565b5060808201518160040190805190602001906110ec929190613968565b5060a0820151816005019080519060200190611109929190613968565b5060c0820151816006019080519060200190611126929190613968565b5060e0820151816007015550503373ffffffffffffffffffffffffffffffffffffffff167fb9508407a6eccb191d8da3286f4173697cf95604e9ea192fe5ab7c862b5221f6600f543487426040516111819493929190614a66565b60405180910390a261119533600f54612b9e565b6001600b856040516111a79190614aee565b908152602001604051809103902060006101000a81548160ff021916908360ff16021790555033600c6000600f54815260200190815260200160002060006101000a81548173ffffffffffffffffffffffffffffffffffffffff021916908373ffffffffffffffffffffffffffffffffffffffff160217905550505050505050565b6000611233610a28565b8210611274576040517f08c379a000000000000000000000000000000000000000000000000000000000815260040161126b90614b77565b60405180910390fd5b6008828154811061128857611287614b97565b5b90600052602060002001549050919050565b6112a26139ee565b60136001836112b191906149e9565b815481106112c2576112c1614b97565b5b906000526020600020906008020160405180610100016040529081600082015481526020016001820160009054906101000a900473ffffffffffffffffffffffffffffffffffffffff1673ffffffffffffffffffffffffffffffffffffffff1673ffffffffffffffffffffffffffffffffffffffff168152602001600282015481526020016003820180546113569061451c565b80601f01602080910402602001604051908101604052809291908181526020018280546113829061451c565b80156113cf5780601f106113a4576101008083540402835291602001916113cf565b820191906000526020600020905b8154815290600101906020018083116113b257829003601f168201915b505050505081526020016004820180546113e89061451c565b80601f01602080910402602001604051908101604052809291908181526020018280546114149061451c565b80156114615780601f1061143657610100808354040283529160200191611461565b820191906000526020600020905b81548152906001019060200180831161144457829003601f168201915b5050505050815260200160058201805461147a9061451c565b80601f01602080910402602001604051908101604052809291908181526020018280546114a69061451c565b80156114f35780601f106114c8576101008083540402835291602001916114f3565b820191906000526020600020905b8154815290600101906020018083116114d657829003601f168201915b5050505050815260200160068201805461150c9061451c565b80601f01602080910402602001604051908101604052809291908181526020018280546115389061451c565b80156115855780601f1061155a57610100808354040283529160200191611585565b820191906000526020600020905b81548152906001019060200180831161156857829003601f168201915b505050505081526020016007820154815250509050919050565b6000806002600084815260200190815260200160002060009054906101000a900473ffffffffffffffffffffffffffffffffffffffff169050600073ffffffffffffffffffffffffffffffffffffffff168173ffffffffffffffffffffffffffffffffffffffff161415611648576040517f08c379a000000000000000000000000000000000000000000000000000000000815260040161163f90614c38565b60405180910390fd5b80915050919050565b60008073ffffffffffffffffffffffffffffffffffffffff168273ffffffffffffffffffffffffffffffffffffffff1614156116c2576040517f08c379a00000000000000000000000000000000000000000000000000000000081526004016116b990614cca565b60405180910390fd5b600360008373ffffffffffffffffffffffffffffffffffffffff1673ffffffffffffffffffffffffffffffffffffffff168152602001908152602001600020549050919050565b611711612bbc565b61171b6000612c3a565b565b60105481565b6000600a60009054906101000a900473ffffffffffffffffffffffffffffffffffffffff16905090565b60606001805461175c9061451c565b80601f01602080910402602001604051908101604052809291908181526020018280546117889061451c565b80156117d55780601f106117aa576101008083540402835291602001916117d5565b820191906000526020600020905b8154815290600101906020018083116117b857829003601f168201915b5050505050905090565b60136001826117ee91906149e9565b815481106117ff576117fe614b97565b5b906000526020600020906008020160020154341015611853576040517f08c379a000000000000000000000000000000000000000000000000000000000815260040161184a90614d36565b60405180910390fd5b601360018261186291906149e9565b8154811061187357611872614b97565b5b906000526020600020906008020160010160009054906101000a900473ffffffffffffffffffffffffffffffffffffffff1673ffffffffffffffffffffffffffffffffffffffff163373ffffffffffffffffffffffffffffffffffffffff161415611913576040517f08c379a000000000000000000000000000000000000000000000000000000000815260040161190a90614da2565b60405180910390fd5b60006064600e5434611925919061492f565b61192f91906149b8565b905061195d600d60009054906101000a900473ffffffffffffffffffffffffffffffffffffffff1682612b23565b6119c3601360018461196f91906149e9565b815481106119805761197f614b97565b5b906000526020600020906008020160010160009054906101000a900473ffffffffffffffffffffffffffffffffffffffff1682346119be91906149e9565b612b23565b601060008154809291906119d690614a1d565b9190505550601260405180610100016040528060105481526020013373ffffffffffffffffffffffffffffffffffffffff1681526020013481526020016013600186611a2291906149e9565b81548110611a3357611a32614b97565b5b90600052602060002090600802016003018054611a4f9061451c565b80601f0160208091040260200160405190810160405280929190818152602001828054611a7b9061451c565b8015611ac85780601f10611a9d57610100808354040283529160200191611ac8565b820191906000526020600020905b815481529060010190602001808311611aab57829003601f168201915b505050505081526020016013600186611ae191906149e9565b81548110611af257611af1614b97565b5b90600052602060002090600802016004018054611b0e9061451c565b80601f0160208091040260200160405190810160405280929190818152602001828054611b3a9061451c565b8015611b875780601f10611b5c57610100808354040283529160200191611b87565b820191906000526020600020905b815481529060010190602001808311611b6a57829003601f168201915b505050505081526020016013600186611ba091906149e9565b81548110611bb157611bb0614b97565b5b90600052602060002090600802016005018054611bcd9061451c565b80601f0160208091040260200160405190810160405280929190818152602001828054611bf99061451c565b8015611c465780601f10611c1b57610100808354040283529160200191611c46565b820191906000526020600020905b815481529060010190602001808311611c2957829003601f168201915b505050505081526020016013600186611c5f91906149e9565b81548110611c7057611c6f614b97565b5b90600052602060002090600802016006018054611c8c9061451c565b80601f0160208091040260200160405190810160405280929190818152602001828054611cb89061451c565b8015611d055780601f10611cda57610100808354040283529160200191611d05565b820191906000526020600020905b815481529060010190602001808311611ce857829003601f168201915b505050505081526020014281525090806001815401808255809150506001900390600052602060002090600802016000909190919091506000820151816000015560208201518160010160006101000a81548173ffffffffffffffffffffffffffffffffffffffff021916908373ffffffffffffffffffffffffffffffffffffffff160217905550604082015181600201556060820151816003019080519060200190611db3929190613968565b506080820151816004019080519060200190611dd0929190613968565b5060a0820151816005019080519060200190611ded929190613968565b5060c0820151816006019080519060200190611e0a929190613968565b5060e0820151816007015550503373ffffffffffffffffffffffffffffffffffffffff167fb9508407a6eccb191d8da3286f4173697cf95604e9ea192fe5ab7c862b5221f6601054346013600187611e6291906149e9565b81548110611e7357611e72614b97565b5b906000526020600020906008020160050142604051611e959493929190614e57565b60405180910390a2336013600184611ead91906149e9565b81548110611ebe57611ebd614b97565b5b906000526020600020906008020160010160006101000a81548173ffffffffffffffffffffffffffffffffffffffff021916908373ffffffffffffffffffffffffffffffffffffffff1602179055505050565b611f23611f1c612728565b8383612d00565b5050565b6000808211611f6b576040517f08c379a0000000000000000000000000000000000000000000000000000000008152600401611f6290614eef565b60405180910390fd5b6013600184611f7a91906149e9565b81548110611f8b57611f8a614b97565b5b906000526020600020906008020160010160009054906101000a900473ffffffffffffffffffffffffffffffffffffffff1673ffffffffffffffffffffffffffffffffffffffff163373ffffffffffffffffffffffffffffffffffffffff161461202a576040517f08c379a000000000000000000000000000000000000000000000000000000000815260040161202190614da2565b60405180910390fd5b81601360018561203a91906149e9565b8154811061204b5761204a614b97565b5b9060005260206000209060080201600201819055506001905092915050565b61207b612075612728565b836127e9565b6120ba576040517f08c379a00000000000000000000000000000000000000000000000000000000081526004016120b190614776565b60405180910390fd5b6120c684848484612e6d565b50505050565b60606120d7826126bc565b612116576040517f08c379a000000000000000000000000000000000000000000000000000000000815260040161210d90614f81565b60405180910390fd5b6000612120612ec9565b90506000815111612140576040518060200160405280600081525061216b565b8061214a84612ee0565b60405160200161215b929190614fa1565b6040516020818303038152906040525b915050919050565b600c6020528060005260406000206000915054906101000a900473ffffffffffffffffffffffffffffffffffffffff1681565b60606013805480602002602001604051908101604052809291908181526020016000905b828210156124b9578382906000526020600020906008020160405180610100016040529081600082015481526020016001820160009054906101000a900473ffffffffffffffffffffffffffffffffffffffff1673ffffffffffffffffffffffffffffffffffffffff1673ffffffffffffffffffffffffffffffffffffffff168152602001600282015481526020016003820180546122689061451c565b80601f01602080910402602001604051908101604052809291908181526020018280546122949061451c565b80156122e15780601f106122b6576101008083540402835291602001916122e1565b820191906000526020600020905b8154815290600101906020018083116122c457829003601f168201915b505050505081526020016004820180546122fa9061451c565b80601f01602080910402602001604051908101604052809291908181526020018280546123269061451c565b80156123735780601f1061234857610100808354040283529160200191612373565b820191906000526020600020905b81548152906001019060200180831161235657829003601f168201915b5050505050815260200160058201805461238c9061451c565b80601f01602080910402602001604051908101604052809291908181526020018280546123b89061451c565b80156124055780601f106123da57610100808354040283529160200191612405565b820191906000526020600020905b8154815290600101906020018083116123e857829003601f168201915b5050505050815260200160068201805461241e9061451c565b80601f016020809104026020016040519081016040528092919081815260200182805461244a9061451c565b80156124975780601f1061246c57610100808354040283529160200191612497565b820191906000526020600020905b81548152906001019060200180831161247a57829003601f168201915b50505050508152602001600782015481525050815260200190600101906121ca565b50505050905090565b6000600560008473ffffffffffffffffffffffffffffffffffffffff1673ffffffffffffffffffffffffffffffffffffffff16815260200190815260200160002060008373ffffffffffffffffffffffffffffffffffffffff1673ffffffffffffffffffffffffffffffffffffffff16815260200190815260200160002060009054906101000a900460ff16905092915050565b61255e612bbc565b600073ffffffffffffffffffffffffffffffffffffffff168173ffffffffffffffffffffffffffffffffffffffff1614156125ce576040517f08c379a00000000000000000000000000000000000000000000000000000000081526004016125c590615037565b60405180910390fd5b6125d781612c3a565b50565b60007f80ac58cd000000000000000000000000000000000000000000000000000000007bffffffffffffffffffffffffffffffffffffffffffffffffffffffff1916827bffffffffffffffffffffffffffffffffffffffffffffffffffffffff191614806126a557507f5b5e139f000000000000000000000000000000000000000000000000000000007bffffffffffffffffffffffffffffffffffffffffffffffffffffffff1916827bffffffffffffffffffffffffffffffffffffffffffffffffffffffff1916145b806126b557506126b482612fb8565b5b9050919050565b60008073ffffffffffffffffffffffffffffffffffffffff166002600084815260200190815260200160002060009054906101000a900473ffffffffffffffffffffffffffffffffffffffff1673ffffffffffffffffffffffffffffffffffffffff1614159050919050565b600033905090565b816004600083815260200190815260200160002060006101000a81548173ffffffffffffffffffffffffffffffffffffffff021916908373ffffffffffffffffffffffffffffffffffffffff160217905550808273ffffffffffffffffffffffffffffffffffffffff166127a38361159f565b73ffffffffffffffffffffffffffffffffffffffff167f8c5be1e5ebec7d5bd14f71427d1e84f3dd0314c0f7b2291e5b200ac8c7c3b92560405160405180910390a45050565b60006127f4826126bc565b612833576040517f08c379a000000000000000000000000000000000000000000000000000000000815260040161282a906150c9565b60405180910390fd5b600061283e8361159f565b90508073ffffffffffffffffffffffffffffffffffffffff168473ffffffffffffffffffffffffffffffffffffffff1614806128ad57508373ffffffffffffffffffffffffffffffffffffffff1661289584610885565b73ffffffffffffffffffffffffffffffffffffffff16145b806128be57506128bd81856124c2565b5b91505092915050565b8273ffffffffffffffffffffffffffffffffffffffff166128e78261159f565b73ffffffffffffffffffffffffffffffffffffffff161461293d576040517f08c379a00000000000000000000000000000000000000000000000000000000081526004016129349061515b565b60405180910390fd5b600073ffffffffffffffffffffffffffffffffffffffff168273ffffffffffffffffffffffffffffffffffffffff1614156129ad576040517f08c379a00000000000000000000000000000000000000000000000000000000081526004016129a4906151ed565b60405180910390fd5b6129b8838383613022565b6129c3600082612730565b6001600360008573ffffffffffffffffffffffffffffffffffffffff1673ffffffffffffffffffffffffffffffffffffffff1681526020019081526020016000206000828254612a1391906149e9565b925050819055506001600360008473ffffffffffffffffffffffffffffffffffffffff1673ffffffffffffffffffffffffffffffffffffffff1681526020019081526020016000206000828254612a6a919061520d565b92505081905550816002600083815260200190815260200160002060006101000a81548173ffffffffffffffffffffffffffffffffffffffff021916908373ffffffffffffffffffffffffffffffffffffffff160217905550808273ffffffffffffffffffffffffffffffffffffffff168473ffffffffffffffffffffffffffffffffffffffff167fddf252ad1be2c89b69c2b068fc378daa952ba7f163c4a11628f55a4df523b3ef60405160405180910390a4505050565b60008273ffffffffffffffffffffffffffffffffffffffff1682604051612b4990615294565b60006040518083038185875af1925050503d8060008114612b86576040519150601f19603f3d011682016040523d82523d6000602084013e612b8b565b606091505b5050905080612b9957600080fd5b505050565b612bb8828260405180602001604052806000815250613136565b5050565b612bc4612728565b73ffffffffffffffffffffffffffffffffffffffff16612be2611723565b73ffffffffffffffffffffffffffffffffffffffff1614612c38576040517f08c379a0000000000000000000000000000000000000000000000000000000008152600401612c2f906152f5565b60405180910390fd5b565b6000600a60009054906101000a900473ffffffffffffffffffffffffffffffffffffffff16905081600a60006101000a81548173ffffffffffffffffffffffffffffffffffffffff021916908373ffffffffffffffffffffffffffffffffffffffff1602179055508173ffffffffffffffffffffffffffffffffffffffff168173ffffffffffffffffffffffffffffffffffffffff167f8be0079c531659141344cd1fd0a4f28419497f9722a3daafe3b4186f6b6457e060405160405180910390a35050565b8173ffffffffffffffffffffffffffffffffffffffff168373ffffffffffffffffffffffffffffffffffffffff161415612d6f576040517f08c379a0000000000000000000000000000000000000000000000000000000008152600401612d6690615361565b60405180910390fd5b80600560008573ffffffffffffffffffffffffffffffffffffffff1673ffffffffffffffffffffffffffffffffffffffff16815260200190815260200160002060008473ffffffffffffffffffffffffffffffffffffffff1673ffffffffffffffffffffffffffffffffffffffff16815260200190815260200160002060006101000a81548160ff0219169083151502179055508173ffffffffffffffffffffffffffffffffffffffff168373ffffffffffffffffffffffffffffffffffffffff167f17307eab39ab6107e8899845ad3d59bd9653f200f220920489ca2b5937696c3183604051612e609190613b1a565b60405180910390a3505050565b612e788484846128c7565b612e8484848484613191565b612ec3576040517f08c379a0000000000000000000000000000000000000000000000000000000008152600401612eba906153f3565b60405180910390fd5b50505050565b606060405180602001604052806000815250905090565b606060006001612eef84613319565b01905060008167ffffffffffffffff811115612f0e57612f0d613fb3565b5b6040519080825280601f01601f191660200182016040528015612f405781602001600182028036833780820191505090505b509050600082602001820190505b600115612fad578080600190039150507f3031323334353637383961626364656600000000000000000000000000000000600a86061a8153600a8581612f9757612f96614989565b5b0494506000851415612fa857612fad565b612f4e565b819350505050919050565b60007f01ffc9a7000000000000000000000000000000000000000000000000000000007bffffffffffffffffffffffffffffffffffffffffffffffffffffffff1916827bffffffffffffffffffffffffffffffffffffffffffffffffffffffff1916149050919050565b61302d83838361346c565b600073ffffffffffffffffffffffffffffffffffffffff168373ffffffffffffffffffffffffffffffffffffffff1614156130705761306b81613471565b6130af565b8173ffffffffffffffffffffffffffffffffffffffff168373ffffffffffffffffffffffffffffffffffffffff16146130ae576130ad83826134ba565b5b5b600073ffffffffffffffffffffffffffffffffffffffff168273ffffffffffffffffffffffffffffffffffffffff1614156130f2576130ed81613627565b613131565b8273ffffffffffffffffffffffffffffffffffffffff168273ffffffffffffffffffffffffffffffffffffffff16146131305761312f82826136f8565b5b5b505050565b6131408383613777565b61314d6000848484613191565b61318c576040517f08c379a0000000000000000000000000000000000000000000000000000000008152600401613183906153f3565b60405180910390fd5b505050565b60006131b28473ffffffffffffffffffffffffffffffffffffffff16613945565b1561330c578373ffffffffffffffffffffffffffffffffffffffff1663150b7a026131db612728565b8786866040518563ffffffff1660e01b81526004016131fd9493929190615468565b6020604051808303816000875af192505050801561323957506040513d601f19601f8201168201806040525081019061323691906154c9565b60015b6132bc573d8060008114613269576040519150601f19603f3d011682016040523d82523d6000602084013e61326e565b606091505b506000815114156132b4576040517f08c379a00000000000000000000000000000000000000000000000000000000081526004016132ab906153f3565b60405180910390fd5b805181602001fd5b63150b7a0260e01b7bffffffffffffffffffffffffffffffffffffffffffffffffffffffff1916817bffffffffffffffffffffffffffffffffffffffffffffffffffffffff191614915050613311565b600190505b949350505050565b600080600090507a184f03e93ff9f4daa797ed6e38ed64bf6a1f0100000000000000008310613377577a184f03e93ff9f4daa797ed6e38ed64bf6a1f010000000000000000838161336d5761336c614989565b5b0492506040810190505b6d04ee2d6d415b85acef810000000083106133b4576d04ee2d6d415b85acef810000000083816133aa576133a9614989565b5b0492506020810190505b662386f26fc1000083106133e357662386f26fc1000083816133d9576133d8614989565b5b0492506010810190505b6305f5e100831061340c576305f5e100838161340257613401614989565b5b0492506008810190505b612710831061343157612710838161342757613426614989565b5b0492506004810190505b60648310613454576064838161344a57613449614989565b5b0492506002810190505b600a8310613463576001810190505b80915050919050565b505050565b6008805490506009600083815260200190815260200160002081905550600881908060018154018082558091505060019003906000526020600020016000909190919091505550565b600060016134c784611651565b6134d191906149e9565b90506000600760008481526020019081526020016000205490508181146135b6576000600660008673ffffffffffffffffffffffffffffffffffffffff1673ffffffffffffffffffffffffffffffffffffffff168152602001908152602001600020600084815260200190815260200160002054905080600660008773ffffffffffffffffffffffffffffffffffffffff1673ffffffffffffffffffffffffffffffffffffffff168152602001908152602001600020600084815260200190815260200160002081905550816007600083815260200190815260200160002081905550505b6007600084815260200190815260200160002060009055600660008573ffffffffffffffffffffffffffffffffffffffff1673ffffffffffffffffffffffffffffffffffffffff16815260200190815260200160002060008381526020019081526020016000206000905550505050565b6000600160088054905061363b91906149e9565b905060006009600084815260200190815260200160002054905060006008838154811061366b5761366a614b97565b5b90600052602060002001549050806008838154811061368d5761368c614b97565b5b9060005260206000200181905550816009600083815260200190815260200160002081905550600960008581526020019081526020016000206000905560088054806136dc576136db6154f6565b5b6001900381819060005260206000200160009055905550505050565b600061370383611651565b905081600660008573ffffffffffffffffffffffffffffffffffffffff1673ffffffffffffffffffffffffffffffffffffffff168152602001908152602001600020600083815260200190815260200160002081905550806007600084815260200190815260200160002081905550505050565b600073ffffffffffffffffffffffffffffffffffffffff168273ffffffffffffffffffffffffffffffffffffffff1614156137e7576040517f08c379a00000000000000000000000000000000000000000000000000000000081526004016137de90615571565b60405180910390fd5b6137f0816126bc565b15613830576040517f08c379a0000000000000000000000000000000000000000000000000000000008152600401613827906155dd565b60405180910390fd5b61383c60008383613022565b6001600360008473ffffffffffffffffffffffffffffffffffffffff1673ffffffffffffffffffffffffffffffffffffffff168152602001908152602001600020600082825461388c919061520d565b92505081905550816002600083815260200190815260200160002060006101000a81548173ffffffffffffffffffffffffffffffffffffffff021916908373ffffffffffffffffffffffffffffffffffffffff160217905550808273ffffffffffffffffffffffffffffffffffffffff16600073ffffffffffffffffffffffffffffffffffffffff167fddf252ad1be2c89b69c2b068fc378daa952ba7f163c4a11628f55a4df523b3ef60405160405180910390a45050565b6000808273ffffffffffffffffffffffffffffffffffffffff163b119050919050565b8280546139749061451c565b90600052602060002090601f01602090048101928261399657600085556139dd565b82601f106139af57805160ff19168380011785556139dd565b828001600101855582156139dd579182015b828111156139dc5782518255916020019190600101906139c1565b5b5090506139ea9190613a49565b5090565b60405180610100016040528060008152602001600073ffffffffffffffffffffffffffffffffffffffff1681526020016000815260200160608152602001606081526020016060815260200160608152602001600081525090565b5b80821115613a62576000816000905550600101613a4a565b5090565b6000604051905090565b600080fd5b600080fd5b60007fffffffff0000000000000000000000000000000000000000000000000000000082169050919050565b613aaf81613a7a565b8114613aba57600080fd5b50565b600081359050613acc81613aa6565b92915050565b600060208284031215613ae857613ae7613a70565b5b6000613af684828501613abd565b91505092915050565b60008115159050919050565b613b1481613aff565b82525050565b6000602082019050613b2f6000830184613b0b565b92915050565b6000819050919050565b613b4881613b35565b82525050565b6000602082019050613b636000830184613b3f565b92915050565b600081519050919050565b600082825260208201905092915050565b60005b83811015613ba3578082015181840152602081019050613b88565b83811115613bb2576000848401525b50505050565b6000601f19601f8301169050919050565b6000613bd482613b69565b613bde8185613b74565b9350613bee818560208601613b85565b613bf781613bb8565b840191505092915050565b60006020820190508181036000830152613c1c8184613bc9565b905092915050565b613c2d81613b35565b8114613c3857600080fd5b50565b600081359050613c4a81613c24565b92915050565b600060208284031215613c6657613c65613a70565b5b6000613c7484828501613c3b565b91505092915050565b600073ffffffffffffffffffffffffffffffffffffffff82169050919050565b6000613ca882613c7d565b9050919050565b613cb881613c9d565b82525050565b6000602082019050613cd36000830184613caf565b92915050565b613ce281613c9d565b8114613ced57600080fd5b50565b600081359050613cff81613cd9565b92915050565b60008060408385031215613d1c57613d1b613a70565b5b6000613d2a85828601613cf0565b9250506020613d3b85828601613c3b565b9150509250929050565b600080600060608486031215613d5e57613d5d613a70565b5b6000613d6c86828701613cf0565b9350506020613d7d86828701613cf0565b9250506040613d8e86828701613c3b565b9150509250925092565b600081519050919050565b600082825260208201905092915050565b6000819050602082019050919050565b613dcd81613b35565b82525050565b613ddc81613c9d565b82525050565b600082825260208201905092915050565b6000613dfe82613b69565b613e088185613de2565b9350613e18818560208601613b85565b613e2181613bb8565b840191505092915050565b600061010083016000830151613e456000860182613dc4565b506020830151613e586020860182613dd3565b506040830151613e6b6040860182613dc4565b5060608301518482036060860152613e838282613df3565b91505060808301518482036080860152613e9d8282613df3565b91505060a083015184820360a0860152613eb78282613df3565b91505060c083015184820360c0860152613ed18282613df3565b91505060e0830151613ee660e0860182613dc4565b508091505092915050565b6000613efd8383613e2c565b905092915050565b6000602082019050919050565b6000613f1d82613d98565b613f278185613da3565b935083602082028501613f3985613db4565b8060005b85811015613f755784840389528151613f568582613ef1565b9450613f6183613f05565b925060208a01995050600181019050613f3d565b50829750879550505050505092915050565b60006020820190508181036000830152613fa18184613f12565b905092915050565b600080fd5b600080fd5b7f4e487b7100000000000000000000000000000000000000000000000000000000600052604160045260246000fd5b613feb82613bb8565b810181811067ffffffffffffffff8211171561400a57614009613fb3565b5b80604052505050565b600061401d613a66565b90506140298282613fe2565b919050565b600067ffffffffffffffff82111561404957614048613fb3565b5b61405282613bb8565b9050602081019050919050565b82818337600083830152505050565b600061408161407c8461402e565b614013565b90508281526020810184848401111561409d5761409c613fae565b5b6140a884828561405f565b509392505050565b600082601f8301126140c5576140c4613fa9565b5b81356140d584826020860161406e565b91505092915050565b600080600080600060a086880312156140fa576140f9613a70565b5b600086013567ffffffffffffffff81111561411857614117613a75565b5b614124888289016140b0565b955050602086013567ffffffffffffffff81111561414557614144613a75565b5b614151888289016140b0565b945050604086013567ffffffffffffffff81111561417257614171613a75565b5b61417e888289016140b0565b935050606086013567ffffffffffffffff81111561419f5761419e613a75565b5b6141ab888289016140b0565b92505060806141bc88828901613c3b565b9150509295509295909350565b6000610100830160008301516141e26000860182613dc4565b5060208301516141f56020860182613dd3565b5060408301516142086040860182613dc4565b50606083015184820360608601526142208282613df3565b9150506080830151848203608086015261423a8282613df3565b91505060a083015184820360a08601526142548282613df3565b91505060c083015184820360c086015261426e8282613df3565b91505060e083015161428360e0860182613dc4565b508091505092915050565b600060208201905081810360008301526142a881846141c9565b905092915050565b6000602082840312156142c6576142c5613a70565b5b60006142d484828501613cf0565b91505092915050565b6142e681613aff565b81146142f157600080fd5b50565b600081359050614303816142dd565b92915050565b600080604083850312156143205761431f613a70565b5b600061432e85828601613cf0565b925050602061433f858286016142f4565b9150509250929050565b600080604083850312156143605761435f613a70565b5b600061436e85828601613c3b565b925050602061437f85828601613c3b565b9150509250929050565b600067ffffffffffffffff8211156143a4576143a3613fb3565b5b6143ad82613bb8565b9050602081019050919050565b60006143cd6143c884614389565b614013565b9050828152602081018484840111156143e9576143e8613fae565b5b6143f484828561405f565b509392505050565b600082601f83011261441157614410613fa9565b5b81356144218482602086016143ba565b91505092915050565b6000806000806080858703121561444457614443613a70565b5b600061445287828801613cf0565b945050602061446387828801613cf0565b935050604061447487828801613c3b565b925050606085013567ffffffffffffffff81111561449557614494613a75565b5b6144a1878288016143fc565b91505092959194509250565b600080604083850312156144c4576144c3613a70565b5b60006144d285828601613cf0565b92505060206144e385828601613cf0565b9150509250929050565b7f4e487b7100000000000000000000000000000000000000000000000000000000600052602260045260246000fd5b6000600282049050600182168061453457607f821691505b60208210811415614548576145476144ed565b5b50919050565b7f4552433732313a20617070726f76656420717565727920666f72206e6f6e657860008201527f697374656e7420746f6b656e0000000000000000000000000000000000000000602082015250565b60006145aa602c83613b74565b91506145b58261454e565b604082019050919050565b600060208201905081810360008301526145d98161459d565b9050919050565b7f4552433732313a20617070726f76616c20746f2063757272656e74206f776e6560008201527f7200000000000000000000000000000000000000000000000000000000000000602082015250565b600061463c602183613b74565b9150614647826145e0565b604082019050919050565b6000602082019050818103600083015261466b8161462f565b9050919050565b7f4552433732313a20617070726f76652063616c6c6572206973206e6f74206f7760008201527f6e6572206e6f7220617070726f76656420666f7220616c6c0000000000000000602082015250565b60006146ce603883613b74565b91506146d982614672565b604082019050919050565b600060208201905081810360008301526146fd816146c1565b9050919050565b7f4552433732313a207472616e736665722063616c6c6572206973206e6f74206f60008201527f776e6572206e6f7220617070726f766564000000000000000000000000000000602082015250565b6000614760603183613b74565b915061476b82614704565b604082019050919050565b6000602082019050818103600083015261478f81614753565b9050919050565b7f455243373231456e756d657261626c653a206f776e657220696e646578206f7560008201527f74206f6620626f756e6473000000000000000000000000000000000000000000602082015250565b60006147f2602b83613b74565b91506147fd82614796565b604082019050919050565b60006020820190508181036000830152614821816147e5565b9050919050565b7f457468657220746f6f206c6f7720666f72206d696e74696e6721000000000000600082015250565b600061485e601a83613b74565b915061486982614828565b602082019050919050565b6000602082019050818103600083015261488d81614851565b9050919050565b7f53616c6573206e6f7420616c6c6f776564210000000000000000000000000000600082015250565b60006148ca601283613b74565b91506148d582614894565b602082019050919050565b600060208201905081810360008301526148f9816148bd565b9050919050565b7f4e487b7100000000000000000000000000000000000000000000000000000000600052601160045260246000fd5b600061493a82613b35565b915061494583613b35565b9250817fffffffffffffffffffffffffffffffffffffffffffffffffffffffffffffffff048311821515161561497e5761497d614900565b5b828202905092915050565b7f4e487b7100000000000000000000000000000000000000000000000000000000600052601260045260246000fd5b60006149c382613b35565b91506149ce83613b35565b9250826149de576149dd614989565b5b828204905092915050565b60006149f482613b35565b91506149ff83613b35565b925082821015614a1257614a11614900565b5b828203905092915050565b6000614a2882613b35565b91507fffffffffffffffffffffffffffffffffffffffffffffffffffffffffffffffff821415614a5b57614a5a614900565b5b600182019050919050565b6000608082019050614a7b6000830187613b3f565b614a886020830186613b3f565b8181036040830152614a9a8185613bc9565b9050614aa96060830184613b3f565b95945050505050565b600081905092915050565b6000614ac882613b69565b614ad28185614ab2565b9350614ae2818560208601613b85565b80840191505092915050565b6000614afa8284614abd565b915081905092915050565b7f455243373231456e756d657261626c653a20676c6f62616c20696e646578206f60008201527f7574206f6620626f756e64730000000000000000000000000000000000000000602082015250565b6000614b61602c83613b74565b9150614b6c82614b05565b604082019050919050565b60006020820190508181036000830152614b9081614b54565b9050919050565b7f4e487b7100000000000000000000000000000000000000000000000000000000600052603260045260246000fd5b7f4552433732313a206f776e657220717565727920666f72206e6f6e657869737460008201527f656e7420746f6b656e0000000000000000000000000000000000000000000000602082015250565b6000614c22602983613b74565b9150614c2d82614bc6565b604082019050919050565b60006020820190508181036000830152614c5181614c15565b9050919050565b7f4552433732313a2062616c616e636520717565727920666f7220746865207a6560008201527f726f206164647265737300000000000000000000000000000000000000000000602082015250565b6000614cb4602a83613b74565b9150614cbf82614c58565b604082019050919050565b60006020820190508181036000830152614ce381614ca7565b9050919050565b7f457468657220746f6f206c6f7720666f72207075726368617365210000000000600082015250565b6000614d20601b83613b74565b9150614d2b82614cea565b602082019050919050565b60006020820190508181036000830152614d4f81614d13565b9050919050565b7f4f7065726174696f6e204e6f7420416c6c6f7765642100000000000000000000600082015250565b6000614d8c601683613b74565b9150614d9782614d56565b602082019050919050565b60006020820190508181036000830152614dbb81614d7f565b9050919050565b60008190508160005260206000209050919050565b60008154614de48161451c565b614dee8186613b74565b94506001821660008114614e095760018114614e1b57614e4e565b60ff1983168652602086019350614e4e565b614e2485614dc2565b60005b83811015614e4657815481890152600182019150602081019050614e27565b808801955050505b50505092915050565b6000608082019050614e6c6000830187613b3f565b614e796020830186613b3f565b8181036040830152614e8b8185614dd7565b9050614e9a6060830184613b3f565b95945050505050565b7f457468657220746f6f206c6f7721000000000000000000000000000000000000600082015250565b6000614ed9600e83613b74565b9150614ee482614ea3565b602082019050919050565b60006020820190508181036000830152614f0881614ecc565b9050919050565b7f4552433732314d657461646174613a2055524920717565727920666f72206e6f60008201527f6e6578697374656e7420746f6b656e0000000000000000000000000000000000602082015250565b6000614f6b602f83613b74565b9150614f7682614f0f565b604082019050919050565b60006020820190508181036000830152614f9a81614f5e565b9050919050565b6000614fad8285614abd565b9150614fb98284614abd565b91508190509392505050565b7f4f776e61626c653a206e6577206f776e657220697320746865207a65726f206160008201527f6464726573730000000000000000000000000000000000000000000000000000602082015250565b6000615021602683613b74565b915061502c82614fc5565b604082019050919050565b6000602082019050818103600083015261505081615014565b9050919050565b7f4552433732313a206f70657261746f7220717565727920666f72206e6f6e657860008201527f697374656e7420746f6b656e0000000000000000000000000000000000000000602082015250565b60006150b3602c83613b74565b91506150be82615057565b604082019050919050565b600060208201905081810360008301526150e2816150a6565b9050919050565b7f4552433732313a207472616e73666572206f6620746f6b656e2074686174206960008201527f73206e6f74206f776e0000000000000000000000000000000000000000000000602082015250565b6000615145602983613b74565b9150615150826150e9565b604082019050919050565b6000602082019050818103600083015261517481615138565b9050919050565b7f4552433732313a207472616e7366657220746f20746865207a65726f2061646460008201527f7265737300000000000000000000000000000000000000000000000000000000602082015250565b60006151d7602483613b74565b91506151e28261517b565b604082019050919050565b60006020820190508181036000830152615206816151ca565b9050919050565b600061521882613b35565b915061522383613b35565b9250827fffffffffffffffffffffffffffffffffffffffffffffffffffffffffffffffff0382111561525857615257614900565b5b828201905092915050565b600081905092915050565b50565b600061527e600083615263565b91506152898261526e565b600082019050919050565b600061529f82615271565b9150819050919050565b7f4f776e61626c653a2063616c6c6572206973206e6f7420746865206f776e6572600082015250565b60006152df602083613b74565b91506152ea826152a9565b602082019050919050565b6000602082019050818103600083015261530e816152d2565b9050919050565b7f4552433732313a20617070726f766520746f2063616c6c657200000000000000600082015250565b600061534b601983613b74565b915061535682615315565b602082019050919050565b6000602082019050818103600083015261537a8161533e565b9050919050565b7f4552433732313a207472616e7366657220746f206e6f6e20455243373231526560008201527f63656976657220696d706c656d656e7465720000000000000000000000000000602082015250565b60006153dd603283613b74565b91506153e882615381565b604082019050919050565b6000602082019050818103600083015261540c816153d0565b9050919050565b600081519050919050565b600082825260208201905092915050565b600061543a82615413565b615444818561541e565b9350615454818560208601613b85565b61545d81613bb8565b840191505092915050565b600060808201905061547d6000830187613caf565b61548a6020830186613caf565b6154976040830185613b3f565b81810360608301526154a9818461542f565b905095945050505050565b6000815190506154c381613aa6565b92915050565b6000602082840312156154df576154de613a70565b5b60006154ed848285016154b4565b91505092915050565b7f4e487b7100000000000000000000000000000000000000000000000000000000600052603160045260246000fd5b7f4552433732313a206d696e7420746f20746865207a65726f2061646472657373600082015250565b600061555b602083613b74565b915061556682615525565b602082019050919050565b6000602082019050818103600083015261558a8161554e565b9050919050565b7f4552433732313a20746f6b656e20616c7265616479206d696e74656400000000600082015250565b60006155c7601c83613b74565b91506155d282615591565b602082019050919050565b600060208201905081810360008301526155f6816155ba565b905091905056fea2646970667358221220e1c934e859853362def24f029da39f53fd36c3021304e40df9addabd65f1e1ba64736f6c634300080b0033",
  "immutableReferences": {},
  "source": "// SPDX-License-Identifier: MIT\npragma solidity >=0.7.0 <0.9.0;\n\nimport \"./ERC721.sol\";\nimport \"./ERC721Enumerable.sol\";\nimport \"@openzeppelin/contracts/access/Ownable.sol\";\n\ncontract TimelessNFT is ERC721Enumerable, Ownable {\n    using Strings for uint256;\n    mapping(string => uint8) existingURIs;\n    mapping(uint256 => address) public holderOf;\n\n    address public artist;\n    uint256 public royalityFee;\n    uint256 public supply = 0;\n    uint256 public totalTx = 0;\n    uint256 public cost = 0.01 ether;\n\n    event Sale(\n        uint256 id,\n        address indexed owner,\n        uint256 cost,\n        string metadataURI,\n        uint256 timestamp\n    );\n\n    struct TransactionStruct {\n        uint256 id;\n        address owner;\n        uint256 cost;\n        string title;\n        string description;\n        string metadataURI;\n        string nfttype;\n        uint256 timestamp;\n    }\n\n    TransactionStruct[] transactions;\n    TransactionStruct[] minted;\n\n    constructor(\n        string memory _name,\n        string memory _symbol,\n        uint256 _royalityFee,\n        address _artist\n    ) ERC721(_name, _symbol) {\n        royalityFee = _royalityFee;\n        artist = _artist;\n    }\n\n    function payToMint(\n        string memory title,\n        string memory description,\n        string memory metadataURI,\n        string memory nfttype,\n        uint256 salesPrice\n    ) external payable {\n        require(msg.value >= cost, \"Ether too low for minting!\");\n        require(msg.sender != owner(), \"Sales not allowed!\");\n        \n\n        uint256 royality = (msg.value * royalityFee) / 100;\n        payTo(artist, royality);\n        payTo(owner(), (msg.value - royality));\n\n        supply++;\n\n        minted.push(\n            TransactionStruct(\n                supply,\n                msg.sender,\n                salesPrice,\n                title,\n                description,\n                metadataURI,\n                nfttype,\n                block.timestamp\n            )\n        );\n\n        emit Sale(\n            supply,\n            msg.sender,\n            msg.value,\n            metadataURI,\n            block.timestamp\n        );\n\n        _safeMint(msg.sender, supply);\n        existingURIs[metadataURI] = 1;\n        holderOf[supply] = msg.sender;\n    }\n\n    function payToBuy(uint256 id) external payable {\n        require(msg.value >= minted[id - 1].cost, \"Ether too low for purchase!\");\n        require(msg.sender != minted[id - 1].owner, \"Operation Not Allowed!\");\n\n        uint256 royality = (msg.value * royalityFee) / 100;\n        payTo(artist, royality);\n        payTo(minted[id - 1].owner, (msg.value - royality));\n\n        totalTx++;\n\n        transactions.push(\n            TransactionStruct(\n                totalTx,\n                msg.sender,\n                msg.value,\n                minted[id - 1].title,\n                minted[id - 1].description,\n                minted[id - 1].metadataURI,\n                minted[id - 1].nfttype,\n                block.timestamp\n            )\n        );\n\n        emit Sale(\n            totalTx,\n            msg.sender,\n            msg.value,\n            minted[id - 1].metadataURI,\n            block.timestamp\n        );\n\n        minted[id - 1].owner = msg.sender;\n    }\n\n    function changePrice(uint256 id, uint256 newPrice) external returns (bool) {\n        require(newPrice > 0 ether, \"Ether too low!\");\n        require(msg.sender == minted[id - 1].owner, \"Operation Not Allowed!\");\n\n        minted[id - 1].cost = newPrice;\n        return true;\n    }\n\n    function payTo(address to, uint256 amount) internal {\n        (bool success, ) = payable(to).call{value: amount}(\"\");\n        require(success);\n    }\n\n    function getAllNFTs() external view returns (TransactionStruct[] memory) {\n        return minted;\n    }\n\n    function getNFT(uint256 id) external view returns (TransactionStruct memory) {\n        return minted[id - 1];\n    }\n\n    function getAllTransactions() external view returns (TransactionStruct[] memory) {\n        return transactions;\n    }\n}",
  "sourcePath": "C:\\Users\\Deva\\Desktop\\IPproject\\IPproject\\src\\contracts\\TimelessNFT.sol",
  "compiler": {
    "name": "solc",
    "version": "0.8.11+commit.d7f03943.Emscripten.clang"
  },
  "schemaVersion": "3.4.13",
  "updatedAt": "2023-06-24T18:31:29.154Z",
  "networkType": "ethereum",
  "devdoc": {
    "kind": "dev",
    "methods": {
      "approve(address,uint256)": {
        "details": "See {IERC721-approve}."
      },
      "balanceOf(address)": {
        "details": "See {IERC721-balanceOf}."
      },
      "getApproved(uint256)": {
        "details": "See {IERC721-getApproved}."
      },
      "isApprovedForAll(address,address)": {
        "details": "See {IERC721-isApprovedForAll}."
      },
      "name()": {
        "details": "See {IERC721Metadata-name}."
      },
      "owner()": {
        "details": "Returns the address of the current owner."
      },
      "ownerOf(uint256)": {
        "details": "See {IERC721-ownerOf}."
      },
      "renounceOwnership()": {
        "details": "Leaves the contract without owner. It will not be possible to call `onlyOwner` functions. Can only be called by the current owner. NOTE: Renouncing ownership will leave the contract without an owner, thereby disabling any functionality that is only available to the owner."
      },
      "safeTransferFrom(address,address,uint256)": {
        "details": "See {IERC721-safeTransferFrom}."
      },
      "safeTransferFrom(address,address,uint256,bytes)": {
        "details": "See {IERC721-safeTransferFrom}."
      },
      "setApprovalForAll(address,bool)": {
        "details": "See {IERC721-setApprovalForAll}."
      },
      "supportsInterface(bytes4)": {
        "details": "See {IERC165-supportsInterface}."
      },
      "symbol()": {
        "details": "See {IERC721Metadata-symbol}."
      },
      "tokenByIndex(uint256)": {
        "details": "See {IERC721Enumerable-tokenByIndex}."
      },
      "tokenOfOwnerByIndex(address,uint256)": {
        "details": "See {IERC721Enumerable-tokenOfOwnerByIndex}."
      },
      "tokenURI(uint256)": {
        "details": "See {IERC721Metadata-tokenURI}."
      },
      "totalSupply()": {
        "details": "See {IERC721Enumerable-totalSupply}."
      },
      "transferFrom(address,address,uint256)": {
        "details": "See {IERC721-transferFrom}."
      },
      "transferOwnership(address)": {
        "details": "Transfers ownership of the contract to a new account (`newOwner`). Can only be called by the current owner."
      }
    },
    "version": 1
  },
  "userdoc": {
    "kind": "user",
    "methods": {},
    "version": 1
  }
}